{"abi":[{"type":"constructor","inputs":[],"stateMutability":"nonpayable"},{"type":"function","name":"deposit","inputs":[],"outputs":[],"stateMutability":"payable"},{"type":"function","name":"getBalance","inputs":[],"outputs":[{"name":"","type":"uint256","internalType":"uint256"}],"stateMutability":"view"},{"type":"function","name":"getContractBalance","inputs":[],"outputs":[{"name":"","type":"uint256","internalType":"uint256"}],"stateMutability":"view"},{"type":"function","name":"owner","inputs":[],"outputs":[{"name":"","type":"address","internalType":"address"}],"stateMutability":"view"},{"type":"function","name":"transfer","inputs":[{"name":"to","type":"address","internalType":"address"},{"name":"amount","type":"uint256","internalType":"uint256"}],"outputs":[],"stateMutability":"nonpayable"},{"type":"function","name":"withdraw","inputs":[{"name":"amount","type":"uint256","internalType":"uint256"}],"outputs":[],"stateMutability":"nonpayable"},{"type":"event","name":"Deposit","inputs":[{"name":"account","type":"address","indexed":true,"internalType":"address"},{"name":"amount","type":"uint256","indexed":false,"internalType":"uint256"}],"anonymous":false},{"type":"event","name":"Transfer","inputs":[{"name":"from","type":"address","indexed":true,"internalType":"address"},{"name":"to","type":"address","indexed":true,"internalType":"address"},{"name":"amount","type":"uint256","indexed":false,"internalType":"uint256"}],"anonymous":false},{"type":"event","name":"Withdrawal","inputs":[{"name":"account","type":"address","indexed":true,"internalType":"address"},{"name":"amount","type":"uint256","indexed":false,"internalType":"uint256"}],"anonymous":false}],"bytecode":{"object":"0x6080604052348015600e575f5ffd5b50600180546001600160a01b031916331790556105ac8061002e5f395ff3fe608060405260043610610054575f3560e01c806312065fe0146100585780632e1a7d4d146100875780636f9fb98a146100a85780638da5cb5b146100ba578063a9059cbb146100f1578063d0e30db014610110575b5f5ffd5b348015610063575f5ffd5b50335f908152602081905260409020545b6040519081526020015b60405180910390f35b348015610092575f5ffd5b506100a66100a13660046104b3565b610118565b005b3480156100b3575f5ffd5b5047610074565b3480156100c5575f5ffd5b506001546100d9906001600160a01b031681565b6040516001600160a01b03909116815260200161007e565b3480156100fc575f5ffd5b506100a661010b3660046104ca565b610278565b6100a661043a565b5f81116101405760405162461bcd60e51b8152600401610137906104ff565b60405180910390fd5b335f908152602081905260409020548111156101955760405162461bcd60e51b8152602060048201526014602482015273496e73756666696369656e742062616c616e636560601b6044820152606401610137565b335f90815260208190526040812080548392906101b390849061054a565b90915550506040515f90339083908381818185875af1925050503d805f81146101f7576040519150601f19603f3d011682016040523d82523d5f602084013e6101fc565b606091505b505090508061023f5760405162461bcd60e51b815260206004820152600f60248201526e151c985b9cd9995c8819985a5b1959608a1b6044820152606401610137565b60405182815233907f7fcf532c15f0a6db0bd6d0e038bea71d30d808c7d98cb3bf7268a95bf5081b659060200160405180910390a25050565b6001600160a01b0382166102c05760405162461bcd60e51b815260206004820152600f60248201526e496e76616c6964206164647265737360881b6044820152606401610137565b5f81116102df5760405162461bcd60e51b8152600401610137906104ff565b335f908152602081905260409020548111156103345760405162461bcd60e51b8152602060048201526014602482015273496e73756666696369656e742062616c616e636560601b6044820152606401610137565b335f908152602081905260408120805483929061035290849061054a565b90915550506040515f906001600160a01b0384169083908381818185875af1925050503d805f811461039f576040519150601f19603f3d011682016040523d82523d5f602084013e6103a4565b606091505b50509050806103f55760405162461bcd60e51b815260206004820152601c60248201527f5472616e7366657220746f20726563697069656e74206661696c6564000000006044820152606401610137565b6040518281526001600160a01b0384169033907fddf252ad1be2c89b69c2b068fc378daa952ba7f163c4a11628f55a4df523b3ef9060200160405180910390a3505050565b5f34116104595760405162461bcd60e51b8152600401610137906104ff565b335f9081526020819052604081208054349290610477908490610563565b909155505060405134815233907fe1fffcc4923d04b559f4d29a8bfc6cda04eb5b0d3c460751c2402c5c5cc9109c9060200160405180910390a2565b5f602082840312156104c3575f5ffd5b5035919050565b5f5f604083850312156104db575f5ffd5b82356001600160a01b03811681146104f1575f5ffd5b946020939093013593505050565b6020808252601d908201527f416d6f756e74206d7573742062652067726561746572207468616e2030000000604082015260600190565b634e487b7160e01b5f52601160045260245ffd5b8181038181111561055d5761055d610536565b92915050565b8082018082111561055d5761055d61053656fea2646970667358221220b2f344da480a592875e254ac70224cbcb55a149ef07edf2a305a03f5517b86c864736f6c634300081c0033","linkReferences":{}},"methodIdentifiers":{"deposit()":"d0e30db0","getBalance()":"12065fe0","getContractBalance()":"6f9fb98a","owner()":"8da5cb5b","transfer(address,uint256)":"a9059cbb","withdraw(uint256)":"2e1a7d4d"},"id":21}